:040000008A11112828
:10000800FE00030EF0000408F1000A08F200831253
:1000180003137F08F3008A1144288A1113288A11D0
:100028006D208A11F7008A116E208A11F800831357
:10003800A0308400CE308A1158208A1153308400B1
:1000480059308A115820F90183018A11542E15302C
:100058008A1131238A11003A0319080016308A11CF
:1000680031238A11003A0319080083120313D801B7
:10007800D80A0930B1008230B2008A11692208001A
:100088007308FF0072088A0071088400700E8300EC
:10009800FE0E7E0E0900FF3083120313C4004408CD
:1000A800D7078A118526080064008001840A04069F
:1000B8000319003404065928F400831203130C1E94
:1000C80061287408990008007030831603138F00A4
:0600D8000800173400349B
:10020000FF1B0A2983137F1883170008840A031928
:10021000FF0A08007F087F398A000408840A03194E
:10022000FF0A8200013400340A340034643400349C
:10023000E8340334103427345734653427346C34AD
:100240006C342034703475347434203479346F3421
:10025000753420346234613463346B34203469344F
:100260006E342034743475346E3469346E346734CB
:1002700020346D346F3464346534203473346F3417
:10028000203479346F3475342034633461346E34FF
:10029000203466346934783420346934743420343A
:1002A0006E346F3477342E3420340A340D340034F5
:1002B000543475346E3469346E3467342034723497
:1002C0006534733465347434203474346F342034BA
:1002D00066346134633474346F3472347934203466
:1002E000643465346634613475346C347434733416
:1002F0002E342034423465347434743465347234AA
:100300002034743475346E34653420346934743474
:10031000203461346734613469346E3421340A34F2
:100320000D340034523465347334653474347434A9
:1003300069346E3467342034743475346E346934FF
:100340006E346734203474346F342034663461344E
:10035000633474346F3472347934203464346534E3
:100360006634613475346C34743473342E342E3402
:100370002E340A340D3400340A340D3452346534CA
:10038000643420344B346534793462346F346134EE
:100390007234643420346234793420344A34613421
:1003A0006D346534733420344834613467346534D3
:1003B00072346D3461346E3420343234303431343C
:1003C00035340A340D3400344334753472347234A5
:1003D00065346E34743420346B34653479343A3493
:1003E000203425346934093420344334753472346C
:1003F000723465346E3474342034763461346C3441
:10040000753465343A342034253469340A340D3473
:1004100000340A340D3445346E3474346534723427
:1004200069346E3467342034743475346E3469340E
:100430006E34673420346D346F34643465342E3454
:100440002E342E340A340D3400344E346F34743468
:1004500065343A3420342534693409342034563430
:1004600061346C34753465343A342034253469345D
:100470000A340D34003443347534723472346534C4
:100480006E34743420346B34653479343A34203427
:10049000253469340A340D340034573472346934E5
:1004A000743469346E3467342034763461346C3497
:1004B000753465343A342034253469340034443496
:1004C0006F346E34653421340A340D3400342E34E4
:1004D0000034333083120313B7003708BA00831295
:1004E00003133208B8003108B700B10A0319B20A81
:1004F0003808FF00370884008A1100218A11B900EA
:100500003908BF003F080319080025303F060319CA
:100510008E2A3F088A1160208A116F2A83120313E2
:10052000BB013208B8003108B700B10A0319B20A9A
:100530003808FF00370884008A1100218A11BF00A3
:10054000003A0319302B643A0319AA2A0D3A031909
:10055000AA2A6F2A3A08840083130008BD00840A7F
:100560000008BE000230B7003708BA07BE1FC12A14
:100570000330B7003708BB04BD09BE09BD0A031923
:10058000BE0ABF01BF0A05303F060319E82A3F082B
:10059000B7003707123E840081300318013EFF0088
:1005A0008A1100218A11B8008A1100218A11B9002C
:1005B00039083E02031DDE2A38083D02031CE82AE2
:1005C0000130B7003708BF0705303F06031DC72AB3
:1005D0003B0803390319F02A2D308A1160208A1153
:1005E000831203133F08B7003708BC00FF308312A3
:1005F0000313B7003708BC073C0A03196F2A0A30F7
:10060000AB000030AC003C08B7003707123E840056
:1006100081300318013EFF008A1100218A11A400D5
:100620008A1100218A11A5003E08A7003D08A600F6
:100630008A1169258A11831203132508AE00240844
:10064000AD008A1120268A11831203132B08303E35
:10065000B8003808BF003F088A1160208A11F62AC6
:100660000800F6007608013EFF3A013E7707F400E5
:100670007408F6001030760203188C2B76080139C6
:10068000F400F40DF40D8312031305087406FB390E
:10069000740685007608F40001300310F40CFF3E68
:1006A000031D4D2B01307405F50007087506FE3952
:1006B000750687007608F40002300310F40CFF3E44
:1006C000031D5D2B74080139F500F50D070875064B
:1006D000FD39750687007608F40003300310F40C2A
:1006E000FF3E031D6E2B74080139F500F50DF50D65
:1006F00007087506FB39750687000330F50097304B
:10070000F400F40B812BF50B812B862B8312031342
:10071000051AC52B0130080076080139F400F40EE3
:100720008312031306087406EF39740686007608F0
:10073000F4000310740C0139F500F50DF50DF50DFD
:1007400007087506F739750687007608F400023049
:100750000310F40CFF3E031DA82B74080139F500AB
:10076000F50E07087506EF39750687000330F500AA
:100770009730F400F40BBA2BF50BBA2BBF2B831276
:100780000313851AC52B0130080000300800023021
:1007900083120313CF000430CE00BA30CD00CD0B4E
:1007A000CF2BCE0BCF2BCF0BCF2BF901062C133039
:1007B0007906031DDE2B8A11F6278A11113079067E
:1007C000031DE52B8A114F208A1112307906031D73
:1007D000EF2B8312031357088A1178278A111430DC
:1007E0007906031DF92B8312031357088A11542726
:1007F0008A1105307906031D002C8A1133248A11D1
:10080000013083120313CD004D08F90779088312D4
:100810000313CD00CE0178084E02031D112C77087A
:100820004D020318232C79088A1131238A11003ACA
:100830000319002C7908031DD72B83120313D80149
:100840008A1127258A11831203135708CD004D07FB
:10085000A03E840083130008F400840A0008F50019
:100860008A11B1260800923083120313B10081303F
:10087000B2008A1169228A11F901790883120313DF
:10088000CA00CB0178084B02031D482C77084A02A6
:1008900003187D2C7708FF3E83120313A400780809
:1008A0000318013EFF3EA5007908CA00CB014A08A3
:1008B000A0004B08A100DE30A2000530A3008A1181
:1008C0009C278A11831203132108A7002008A60081
:1008D0008A1169258A11790883120313CC004C0709
:1008E000A03E8400240883138000840A2508800029
:1008F0000130CA004A08F9073D2C8A1127258A11C0
:10090000583083120313B1008130B2008A1169227A
:100910008A111C3083120313B1008130B2008A1196
:100920006922080083120313D501D6016430D30075
:100930000030D400F9017908AB00AC0178082C0232
:10094000031DA42C77082B020318C32C79088A11E5
:1009500031238A11003A0319BC2C0130831203138E
:10096000D5070318D60A0030D6077908AB00AC01CA
:100970002B08D3002C08D400013083120313AB00E2
:100980002B08F9079B2C550856040319DE2C8716F3
:100990005308A0005408A100A201A3018A11BF2797
:1009A0008A11831203132108AE002008AD002E081F
:1009B000F5002D08F4008A11B126080087120800FE
:1009C00083120313C5004508C0004007A03E840001
:1009D00083130008C300840A0008C40013304402D3
:1009E000893003194302031CFE2C4508C000400750
:1009F000A03E84008001840A80010F2D1030440243
:100A0000003003194302031C0F2D4508C0004007A6
:100A1000A03E8400FF308000840A0F308000E43064
:100A2000B1008130B2004508C000C1014008B300E8
:100A30004108B4004508C2004207A03E84000008F7
:100A4000B500840A0008B6008A1169220800F9017D
:100A5000790883120313C600C70178084702031DF3
:100A6000332D770846020318080079088312031310
:100A7000C6004607A03E840083130008C800840A0D
:100A80000008C9004D30B1008230B2004908B400FE
:100A90004808B3008A1169228A1183120313490896
:100AA000C1004808C0007908C60046078A11E5253C
:100AB0008A115F3083120313B1008230B2008A11B1
:100AC00069228A11013083120313C6004608F90710
:100AD000282D83120313A901AA0124082504031950
:100AE000A22DA801A80AA51B812D01300310A40D79
:100AF000A50DFF3E031D762D0130F6007608A807F0
:100B0000732D01300310A90DAA0DFF3E031D822D88
:100B100025082702031D8E2D24082602031C972D6D
:100B20002408A6022508031CA703A70229140130E4
:100B30000310A50CA40CFF3E031D982D0130A80244
:100B4000031D812D2A08A5002908A4000800703083
:100B5000831603138F00831203179E019F018316D0
:100B60000313850186018701861686179B11333092
:100B70009900181518128312031398171812831668
:100B8000031398168713061606130713831203130D
:100B900007179412F0309405831603139417141753
:100BA0008312031314129416831603138712051667
:100BB000811315160511071087100711851681136B
:100BC0009516061287110712080083120313C50039
:100BD0004008C2004208C3004108C2004208C400E5
:100BE0004308C2004208F40045088A112E278A11E2
:100BF000022E673083120313B1008230B2008A11D3
:100C000069228A11831603178C18F92D8312031396
:100C10004408C2004208F4004508013E8A112E270C
:100C20008A111B2E673083120313B1008230B20089
:100C30008A1169228A11831603178C18122E080054
:100C4000831203132B082C0403194F2EB001B00A92
:100C5000AC1B362E01300310AB0DAC0DFF3E031D57
:100C60002B2E0130AF002F08B007282E2C082E02A3
:100C7000031D3C2E2B082D02031C442E2B08AD0215
:100C80002C08031CAE03AE0201300310AC0CAB0CFD
:100C9000FF3E031D452E0130B002031D362E2E08E7
:100CA000AC002D08AB0008008A1168208A118A1157
:100CB000A7258A11BC3083120313B1008130B20022
:100CC0008A1169228A118A1106278A118A112B201A
:100CD0008A118312031358080319722E8A11C7232D
:100CE0008A11692E0B3083120313D2002630D100F3
:100CF0005D30D000D00B7A2ED10B7A2ED20B7A2E0B
:100D000000008A1192248A11812E83120313D71FA7
:100D10008B2ED701A52E5708C000C101C01BC103EF
:100D20007708FF3EC20078080318013EFF3EC3006B
:100D300041084302031D9E2E400842020318A52EBF
:100D40007708FF3EC0004008D7003B30B10082303A
:100D5000B2005708B300B401B31BB4038A1169226F
:100D600008008312031307130030A2003030A300E1
:100D7000FF307405F4000F307505F5007408220487
:100D8000A00075082304A1002108A000A1012008EB
:100D9000A2002108A3002208930083160313141C49
:100DA000CD2E740883120313930083160313141CAF
:100DB000D52E831203130717080083120313AA000A
:100DC0002A088A11DB278A1183120313A200220842
:100DD000A8002A08013E8A11DB2783120313A20010
:100DE0002208A9002808A200A3012908A400A5013F
:100DF0002408A500A40122082404A6002308250431
:100E0000A7002708A1002608A0000800F90179081A
:100E100083120313AB00AC0178082C02031D122FC0
:100E200077082B0203180800790883120313AB001C
:100E30002B078A11DD268A11790883120313AC006F
:100E40002C07A03E8400200883138000840A210818
:100E500080000130AB002B08F907072FF60083163E
:100E600003178C182F2F7608831203178D00740830
:100E70008C003F30F5007508831603178C0583122C
:100E8000031303108B1B03148B13831603170C150A
:100E900055308D00AA308D008C140C118312031371
:100EA000031C08008B17080083120313CB004B08A8
:100EB000C6004607A03E840083130008C900840AC8
:100EC0000008CA004908013EC6004A080318013E4E
:100ED000003EC7004B08C8004807A03E84004608F3
:100EE0008000840A470880004B088A11E02408002B
:100EF00083120313CB004B08C6004607A03E8400B4
:100F000083130008C900840A0008CA004908FF3E8C
:100F1000C6004A080318013EFF3EC7004B08C80040
:100F20004807A03E840046088000840A47088000E5
:100F30004B088A11E0240800F401F5018312031321
:100F4000201CA82F2208F4070318F50A2308F50728
:100F500001300310A20DA30DFF3E031DA92F013088
:100F60000310A10CA00CFF3E031DB02F200821048C
:100F7000031D9E2F7508A1007408A00008008312AD
:100F800003132008A4002407A03E84008313000854
:100F9000A500840A0008A6002508A7002608A800C6
:100FA000A901AA012A08A3002908A2002808A10073
:100FB0002708A0000800F5006400831603178C18AA
:100FC000DC2F7508831203178D003F30F40074087E
:100FD000831603178C050C1403100C18031400302F
:100FE00003180130831203170C0808000130831224
:0E0FF0000313C4004408D7078A1185260800A1
:02400E00E4F0DC
:00000001FF
